{
  "contractName": "Account",
  "abi": [
    {
      "inputs": [
        {
          "internalType": "address",
          "name": "_sender",
          "type": "address"
        }
      ],
      "payable": true,
      "stateMutability": "payable",
      "type": "constructor"
    },
    {
      "payable": true,
      "stateMutability": "payable",
      "type": "fallback"
    },
    {
      "constant": true,
      "inputs": [],
      "name": "accountAdress",
      "outputs": [
        {
          "internalType": "address",
          "name": "",
          "type": "address"
        }
      ],
      "payable": false,
      "stateMutability": "view",
      "type": "function"
    },
    {
      "constant": false,
      "inputs": [
        {
          "internalType": "uint256",
          "name": "_id",
          "type": "uint256"
        },
        {
          "internalType": "string",
          "name": "_title",
          "type": "string"
        },
        {
          "internalType": "uint256",
          "name": "_price",
          "type": "uint256"
        },
        {
          "internalType": "address",
          "name": "_seller",
          "type": "address"
        }
      ],
      "name": "order",
      "outputs": [
        {
          "internalType": "contract Order",
          "name": "",
          "type": "address"
        }
      ],
      "payable": false,
      "stateMutability": "nonpayable",
      "type": "function"
    }
  ],
  "bytecode": "0x6080604052604051610e9b380380610e9b8339818101604052602081101561002657600080fd5b8101908080519060200190929190505050806000806101000a81548173ffffffffffffffffffffffffffffffffffffffff021916908373ffffffffffffffffffffffffffffffffffffffff16021790555050610e14806100876000396000f3fe6080604052600436106100295760003560e01c80635c1726d31461002b578063b96aec2714610082575b005b34801561003757600080fd5b506100406101be565b604051808273ffffffffffffffffffffffffffffffffffffffff1673ffffffffffffffffffffffffffffffffffffffff16815260200191505060405180910390f35b34801561008e57600080fd5b5061017c600480360360808110156100a557600080fd5b8101908080359060200190929190803590602001906401000000008111156100cc57600080fd5b8201836020820111156100de57600080fd5b8035906020019184600183028401116401000000008311171561010057600080fd5b91908080601f016020809104026020016040519081016040528093929190818152602001838380828437600081840152601f19601f82011690508083019250505050505050919291929080359060200190929190803573ffffffffffffffffffffffffffffffffffffffff1690602001909291905050506101e3565b604051808273ffffffffffffffffffffffffffffffffffffffff1673ffffffffffffffffffffffffffffffffffffffff16815260200191505060405180910390f35b6000809054906101000a900473ffffffffffffffffffffffffffffffffffffffff1681565b60008083866000809054906101000a900473ffffffffffffffffffffffffffffffffffffffff1687878760405161021990610328565b808681526020018573ffffffffffffffffffffffffffffffffffffffff1673ffffffffffffffffffffffffffffffffffffffff168152602001806020018481526020018373ffffffffffffffffffffffffffffffffffffffff1673ffffffffffffffffffffffffffffffffffffffff168152602001828103825285818151815260200191508051906020019080838360005b838110156102c65780820151818401526020810190506102ab565b50505050905090810190601f1680156102f35780820380516001836020036101000a031916815260200191505b5096505050505050506040518091039082f080158015610317573d6000803e3d6000fd5b509050905080915050949350505050565b610aaa806103368339019056fe6080604052604051610aaa380380610aaa833981810160405260a081101561002657600080fd5b8101908080519060200190929190805190602001909291908051604051939291908464010000000082111561005a57600080fd5b8382019150602082018581111561007057600080fd5b825186600182028301116401000000008211171561008d57600080fd5b8083526020830192505050908051906020019080838360005b838110156100c15780820151818401526020810190506100a6565b50505050905090810190601f1680156100ee5780820380516001836020036101000a031916815260200191505b50604052602001805190602001909291908051906020019092919050505060003411610165576040517f08c379a000000000000000000000000000000000000000000000000000000000815260040180806020018281038252602d815260200180610a7d602d913960400191505060405180910390fd5b8460008190555083600160006101000a81548173ffffffffffffffffffffffffffffffffffffffff021916908373ffffffffffffffffffffffffffffffffffffffff16021790555082600290805190602001906101c392919061023a565b508160038190555080600460006101000a81548173ffffffffffffffffffffffffffffffffffffffff021916908373ffffffffffffffffffffffffffffffffffffffff1602179055506001600460146101000a81548160ff0219169083600381111561022b57fe5b021790555050505050506102df565b828054600181600116156101000203166002900490600052602060002090601f016020900481019282601f1061027b57805160ff19168380011785556102a9565b828001600101855582156102a9579182015b828111156102a857825182559160200191906001019061028d565b5b5090506102b691906102ba565b5090565b6102dc91905b808211156102d85760008160009055506001016102c0565b5090565b90565b61078f806102ee6000396000f3fe608060405234801561001057600080fd5b50600436106100885760003560e01c8063a035b1fe1161005b578063a035b1fe14610208578063af640d0f14610226578063c19d93fb14610244578063e5892f641461027057610088565b806308551a531461008d5780634a79d50c146100d75780637150d8ae1461015a5780639408512b146101a4575b600080fd5b6100956102d4565b604051808273ffffffffffffffffffffffffffffffffffffffff1673ffffffffffffffffffffffffffffffffffffffff16815260200191505060405180910390f35b6100df6102fa565b6040518080602001828103825283818151815260200191508051906020019080838360005b8381101561011f578082015181840152602081019050610104565b50505050905090810190601f16801561014c5780820380516001836020036101000a031916815260200191505b509250505060405180910390f35b610162610398565b604051808273ffffffffffffffffffffffffffffffffffffffff1673ffffffffffffffffffffffffffffffffffffffff16815260200191505060405180910390f35b610206600480360360408110156101ba57600080fd5b81019080803573ffffffffffffffffffffffffffffffffffffffff169060200190929190803573ffffffffffffffffffffffffffffffffffffffff1690602001909291905050506103be565b005b61021061052d565b6040518082815260200191505060405180910390f35b61022e610533565b6040518082815260200191505060405180910390f35b61024c610539565b6040518082600381111561025c57fe5b60ff16815260200191505060405180910390f35b6102d26004803603604081101561028657600080fd5b81019080803573ffffffffffffffffffffffffffffffffffffffff169060200190929190803573ffffffffffffffffffffffffffffffffffffffff16906020019092919050505061054c565b005b600460009054906101000a900473ffffffffffffffffffffffffffffffffffffffff1681565b60028054600181600116156101000203166002900480601f0160208091040260200160405190810160405280929190818152602001828054600181600116156101000203166002900480156103905780601f1061036557610100808354040283529160200191610390565b820191906000526020600020905b81548152906001019060200180831161037357829003601f168201915b505050505081565b600160009054906101000a900473ffffffffffffffffffffffffffffffffffffffff1681565b8173ffffffffffffffffffffffffffffffffffffffff16600160009054906101000a900473ffffffffffffffffffffffffffffffffffffffff1673ffffffffffffffffffffffffffffffffffffffff1614610464576040517f08c379a00000000000000000000000000000000000000000000000000000000081526004018080602001828103825260238152602001806106fa6023913960400191505060405180910390fd5b6001600381111561047157fe5b600460149054906101000a900460ff16600381111561048c57fe5b146104e2576040517f08c379a000000000000000000000000000000000000000000000000000000000815260040180806020018281038252603e8152602001806106bc603e913960400191505060405180910390fd5b8073ffffffffffffffffffffffffffffffffffffffff166108fc479081150290604051600060405180830381858888f19350505050158015610528573d6000803e3d6000fd5b505050565b60035481565b60005481565b600460149054906101000a900460ff1681565b8173ffffffffffffffffffffffffffffffffffffffff16600160009054906101000a900473ffffffffffffffffffffffffffffffffffffffff1673ffffffffffffffffffffffffffffffffffffffff16146105f2576040517f08c379a00000000000000000000000000000000000000000000000000000000081526004018080602001828103825260238152602001806106fa6023913960400191505060405180910390fd5b600160038111156105ff57fe5b600460149054906101000a900460ff16600381111561061a57fe5b14610670576040517f08c379a000000000000000000000000000000000000000000000000000000000815260040180806020018281038252603e81526020018061071d603e913960400191505060405180910390fd5b8073ffffffffffffffffffffffffffffffffffffffff166108fc479081150290604051600060405180830381858888f193505050501580156106b6573d6000803e3d6000fd5b50505056fe546f20636f6d706c61696e20746865206f726465722c2069742063616e27742062652079657420636f6d706c65746564206f7220636f6d706c61696e6564596f75206d75737420626520746865206275796572206f662074686973206f72646572546f20636f6d706c65746520746865206f726465722c2069742063616e27742062652079657420636f6d706c65746564206f7220636f6d706c61696e6564a265627a7a7231582089e829f33d46c8f3d2ae0b992250d3025a15297eede9eeae5952ca6b8f87451c64736f6c6343000510003253656e6465722068617320746f2073656e642061206465706f736974206f66206d696e696d756e203120776569a265627a7a7231582045a3a7a2bae135c56f36f50220bf139b0e0ad532d6692e8b3bf77ab901e1cca864736f6c63430005100032",
  "source": "// SPDX-License-Identifier: MIT\npragma solidity >=0.4.22 <0.9.0;\n\n/**\n  ------------------------------------------------------------------------------\n  Escrow smart contract with all data and methods from the escrow logic\n  ------------------------------------------------------------------------------\n */\ncontract Escrow {\n  // Mapping to store the addresses of the Account contracts (buyers and sellers)\n  mapping(address => Account) accounts;\n  // Array to store the addresses of the Account contracts (buyers and sellers) \n  address[] public accountsKeys;\n\n  // Number of the last order Id\n  uint lastOrderId;\n  // Mapping to store the Order contracts\n  mapping(uint => Order) orders;\n  // Array to store the keys of the Order contracts\n  uint[] public ordersKeys;\n\n  // Struct to store the items offered by the buyers\n  struct Item{\n    string title;\n    uint price;\n    address seller;\n  }\n  // Mapping to store the items offered by the buyers\n  mapping(string => Item) items;\n  // Array to store the keys of the items offered by the buyers\n  string[] public itemsKeys;\n\n  // Events\n  event creditEvent(address buyer, uint amount);\n  event offerEvent(address seller, string title, uint price);\n  event orderEvent(address buyer, uint orderId, string title, uint price, address seller);\n  event completeEvent(address buyer, uint orderId, string title, uint price, address seller);\n  event complainEvent(address buyer, uint orderId, string title, uint price, address seller);\n\n  // Constructor of the Escrow contract\n  constructor () public {\n    lastOrderId = 0;\n  }\n\n  // Lets buyers to made a credit with funds\n  function credit() public payable {\n    if (accounts[msg.sender] == Account(0)) {\n      // If the account doen't exist, we create it, and send the deposit to the Account contract\n      Account newAccount = (new Account).value(msg.value)(msg.sender);\n      accounts[msg.sender] = newAccount;\n      accountsKeys.push(msg.sender);\n    } else {\n      // If the account exists, we transfer the deposit to the Account contract\n      address(accounts[msg.sender]).transfer(msg.value);\n    }\n    // Emit the creditEvent\n    emit creditEvent(msg.sender, msg.value);\n  }\n\n  // Returns the balance of the accounts\n  function getAccountBalance(address _account) public view returns (uint) {\n    if (accounts[_account] == Account(0)) {\n      // If the account doesn't exist\n      return 0;\n    } else {\n      // If the accout exists, return its balance\n      return address(accounts[_account]).balance;\n    }\n  }\n\n  // Lets sellers to offer an item for sale\n  function offer(string memory _title, uint _price) public {\n    // We check that the item doesn't exist yet\n    require(items[_title].price == 0, \"This item already exists\");\n    // We add the item to the items mapping\n    items[_title].title = _title;\n    items[_title].price = _price;\n    items[_title].seller = msg.sender;\n    // We add the item to the itemsKeys array\n    itemsKeys.push(_title);\n    // If the account doen't exist, we create it\n    if (accounts[msg.sender] == Account(0)) {\n      Account newAccount = new Account(msg.sender);\n      accounts[msg.sender] = newAccount;\n      accountsKeys.push(msg.sender);\n    }\n    // Emit the offerEvent\n    emit offerEvent(msg.sender, _title, _price);\n  }\n\n  // Returns the price of an item\n  function getItemPrice(string memory _itemTitle) public view returns (uint) {\n    return items[_itemTitle].price;\n  }\n\n  // Order item offered by seller\n  function order(string memory _itemTitle) public {\n    // We check that the buyer has an account\n    require(accounts[msg.sender] != Account(0), \"You haven't a buyer account\");\n    // We check that the item exists\n    require(items[_itemTitle].price != 0, \"This item doesn't exist\");\n    // We check that the buyer has enough funds\n    require(items[_itemTitle].price <= address(accounts[msg.sender]).balance, \"You haven't enough funds\");\n\n    // We create the order from the buyer's account\n    lastOrderId++;\n    Order newOrder = Account(accounts[msg.sender])\n      .order(lastOrderId, items[_itemTitle].title, items[_itemTitle].price, items[_itemTitle].seller);\n    orders[lastOrderId] = newOrder;\n    ordersKeys.push(lastOrderId);\n\n    // Emit the orderEvent\n    emit orderEvent(msg.sender, lastOrderId, items[_itemTitle].title, items[_itemTitle].price, items[_itemTitle].seller);\n  }\n\n  // Get the Id of the last created order\n  function getLastOrderId() public view returns (uint) {\n    // We return the Id of the last created order\n    return lastOrderId;\n  }\n\n  // Returns the balance of the order\n  function getOrderBalance(uint _orderId) public view returns (uint) {\n    if (orders[_orderId] == Order(0)) {\n      // If the order doesn't exist\n      return 0;\n    } else {\n      // If the order exists, return its balance\n      return address(orders[_orderId]).balance;\n    }\n  }\n\n  // The seller completes the Order\n  function complete(uint _orderId) public {\n    // We check that the order exists\n    require(orders[_orderId] != Order(0), \"The order doesn't exist\");\n    \n    // We read the data of the order\n    address _buyer = Order(orders[_orderId]).buyer();\n    string memory _title = Order(orders[_orderId]).title();\n    uint _price = Order(orders[_orderId]).price();\n    address _seller = Order(orders[_orderId]).seller();\n\n    // We complete the order\n    Order(orders[_orderId]).complete(msg.sender, address(accounts[_seller]));\n\n    // Emit the completeEvent\n    emit completeEvent(_buyer, _orderId, _title, _price, _seller);\n  }\n\n  // The seller complains the Order\n  function complain(uint _orderId) public {\n    // We check that the order exists\n    require(orders[_orderId] != Order(0), \"The order doesn't exist\");\n\n    // We read the data of the order\n    address _buyer = Order(orders[_orderId]).buyer();\n    string memory _title = Order(orders[_orderId]).title();\n    uint _price = Order(orders[_orderId]).price();\n    address _seller = Order(orders[_orderId]).seller();\n\n    // We complain the order\n    Order(orders[_orderId]).complain(msg.sender, address(accounts[_buyer]));\n\n    // Emit the complainEvent\n    emit complainEvent(_buyer, _orderId, _title, _price, _seller);\n  }\n\n  // Counts the total amount held in escrow\n  function getTotalHeld() public view returns (uint) {\n    uint total = 0;\n    // We iterate throw all the orders to count to total amount held\n    for (uint i=0; i<ordersKeys.length; i++) {\n      total += address(orders[ordersKeys[i]]).balance;\n    }\n    \n    return total;\n  }\n }\n\n/**\n  ------------------------------------------------------------------------------\n  Account contract, that have the information of buyer and seller accounts, \n  and stores the credit of each account\n  ------------------------------------------------------------------------------\n */\ncontract Account {\n  // Address of the account (buyer or seller)\n  address public accountAdress;\n  \n  // Constructor funcion to create the account\n  constructor (address _sender) public payable {\n    accountAdress = _sender;\n  }\n\n  // Creates an order from an account and place the payment into that order\n  function order(uint _id, string memory _title, uint _price, address _seller) public returns (Order) {\n    Order newOrder = (new Order).value(_price)(_id, accountAdress, _title, _price, _seller);\n    return newOrder;\n  }\n\n  // Let thist contract receive transfers\n  function() external payable {}\n}\n\n/**\n  ------------------------------------------------------------------------------\n  Order contract, that have the information of each order, and stores the \n  payments for each one\n  ------------------------------------------------------------------------------\n */\ncontract Order {\n  // Possible states\n  enum State { notexists, created, completed, complained }\n\n  uint public id;\n  address public buyer;\n  string public title;\n  uint public price;\n  address public seller;\n  State public state;\n\n  // Constructor funcion to create the order\n  constructor (uint _id, address _sender, string memory _title, uint _price, address _seller) public payable {\n    // Requires that the sender send a deposit of minimum 1 wei (>0 wei)\n    require(msg.value>0, \"Sender has to send a deposit of minimun 1 wei\");\n    id = _id;\n    buyer = _sender;\n    title = _title;\n    price = _price;\n    seller = _seller;\n    state = State.created;\n  }\n\n  function complete(address _sender, address payable _sellerAccount) public {\n    // We check that the complete function is called by the buyer\n    require(buyer == _sender, \"You must be the buyer of this order\");\n    // We check that the order is created, and can't be yet completed or complained\n    require(state == State.created, \"To complete the order, it can't be yet completed or complained\");\n    // We paid the payment to the seller\n    _sellerAccount.transfer(address(this).balance);\n  }\n\n  function complain(address _sender, address payable _buyerAccount) public {\n    // We check that the complain function is called by the buyer\n    require(buyer == _sender, \"You must be the buyer of this order\");\n    // We check that the order is created, and can't be yet completed or complained\n    require(state == State.created, \"To complain the order, it can't be yet completed or complained\");\n    // We refund the payment to the buyer\n    _buyerAccount.transfer(address(this).balance);\n  }\n}\n",
  "sourcePath": "/Users/miquel/Desktop/boson_escrow/truffle/contracts/Escrow.sol",
  "compiler": {
    "name": "solc",
    "version": "0.5.16+commit.9c3226ce.Emscripten.clang"
  },
  "schemaVersion": "3.3.3",
  "updatedAt": "2021-02-05T16:41:01.054Z",
  "devdoc": {
    "methods": {}
  },
  "userdoc": {
    "methods": {},
    "notice": "------------------------------------------------------------------------------ Account contract, that have the information of buyer and seller accounts,  and stores the credit of each account ------------------------------------------------------------------------------"
  }
}